:100000000C942A000C9447000C9447000C94470071
:100010000C94A5060C947C060C94EA040C945806E7
:100020000C9447000C942F060C940B060C94E205DC
:100030000C9447000C9447000C9447000C94470024
:100040000C9447000C9447000C9447000C94470014
:100050000C94470011241FBECFE5D8E0DEBFCDBF12
:1000600010E0A0E6B0E0E2EAF3E102C005900D92F4
:10007000AA39B107D9F720E0AAE9B0E001C01D9282
:10008000A33BB207E1F70E9415080C94CF090C942A
:10009000000017B883E886B9089597B1907E97B9A4
:1000A00097B18770982B97B9369A349BFECF349AC4
:1000B00084B195B1089541E050E060E081E00E9494
:1000C000250441E050E061E081E00E94250440E029
:1000D00060E081E00E94630440E061E081E00C9414
:1000E000630498B39C7F8370982B98BB862F0C94E5
:1000F0004B05CF93DF9300D00F92CDB7DEB78A8345
:100100009B8369830E9489070E94A707883039F082
:1001100080E00F900F900F90DF91CF9108952A818A
:100120003B81220F832F881F990B91958E70806AD7
:100130000E9492070E94A707883151F78A810E9486
:1001400092070E94A707883219F789810E949207B7
:100150000E94A7078832E1F60E948F0781E0D9CF7D
:100160000F931F93CF93DF9300D00F92CDB7DEB7DD
:100170008C0169837A830E9489070E94A7078830CF
:1001800049F080E00F900F900F90DF91CF911F9179
:100190000F91089507FB812F881F990B919580F986
:1001A000282F2E702B83822F806A0E9492070E9434
:1001B000A707883131F7802F0E9492070E94A70776
:1001C0008832F9F60E9489070E94A7078031C9F694
:1001D0008B81816A0E9492070E94A707803489F66A
:1001E0000E94A007E981FA8180830E94A7078835D1
:1001F00041F60E948F0781E0C5CFCF93DF9340E0A7
:1002000050E060E080E00E94250440E050E061E0C2
:1002100080E00E94250440E050E062E080E00E941F
:10022000250440E050E063E080E00E94250440E0C7
:1002300050E064E080E00E94250440E050E065E08A
:1002400080E00E94250440E050E066E080E00E94EB
:10025000250440E050E067E080E00E942504C0E013
:1002600041E050E06C2F80E00E94250440E06C2FBC
:1002700080E00E946304D0E064E06D0F80E00E94A3
:100280009D04811569F0DF5FD430B1F740E050E0A4
:100290006C2F80E00E942504CF5FC43009F7DFCFC8
:1002A000EC2FEE0FEE0FED0FF0E0E05AFF4F8081E4
:1002B000DF91CF9108951F93CF93DF93182F40E0E4
:1002C00061E080E00E9463048FE891E00197F1F71C
:1002D00000C0000041E062E080E00E9463048FE81B
:1002E00091E00197F1F700C0000014FB442740F9AA
:1002F00063E080E00E94630415FB442740F964E05A
:1003000080E00E94630416FB442740F965E080E02A
:100310000E94630417FB442740F966E080E00E94D6
:1003200063048FE891E00197F1F700C0000040E01E
:1003300062E080E00E9463048FE891E00197F1F7AA
:1003400000C0000041E062E080E00E9463048FE8AA
:1003500091E00197F1F700C00000412F417063E088
:1003600080E00E94630411FB442740F964E080E0D0
:100370000E94630412FB442740F965E080E00E947C
:10038000630413FB442740F966E080E00E946304A5
:100390008FE891E00197F1F700C0000040E062E0D3
:1003A00080E00E9463048FE891E00197F1F700C0BC
:1003B0000000DF91CF911F91089541E050E061E08E
:1003C00080E00E94250441E050E062E080E00E946D
:1003D00025048FE39FE10197F1F700C0000041E0A1
:1003E00050E063E080E00E94250441E050E064E0DA
:1003F00080E00E94250441E050E065E080E00E943A
:10040000250441E050E066E080E00E94250483E39B
:100410000E945B0182E30E945B0188E20E945B0113
:100420008CE00E945B0181E00C945B011F93CF93F1
:10043000DF93182F41E061E080E00E9463048FE8C1
:1004400091E00197F1F700C0000041E062E080E038
:100450000E9463048FE891E00197F1F700C000006B
:1004600014FB442740F963E080E00E94630415FB1D
:10047000442740F964E080E00E94630416FB4427AF
:1004800040F965E080E00E94630417FB442740F9CF
:1004900066E080E00E9463048FE891E00197F1F745
:1004A00000C0000040E062E080E00E9463048FE84A
:1004B00091E00197F1F700C0000041E062E080E0C8
:1004C0000E9463048FE891E00197F1F700C00000FB
:1004D000412F417063E080E00E94630411FB4427D8
:1004E00040F964E080E00E94630412FB442740F975
:1004F00065E080E00E94630413FB442740F966E056
:1005000080E00E9463048FE891E00197F1F700C05A
:10051000000040E062E080E00E9463048FE891E028
:100520000197F1F700C00000DF91CF911F9108956E
:10053000CF93DF9300D00F92CDB7DEB789839A8334
:100540001B82E981FA818B81E80FF11D8081811185
:1005500006C00F900F900F90DF91CF9108950E94E9
:1005600016028B818F5F8B83ECCF823069F030F481
:10057000811108C0862F80680C945B018330D1F70D
:10058000605BF8CF605CF6CF605FF4CFCF93DF9312
:1005900000D0CDB7DEB749835A830E94B502898166
:1005A0009A810F900F90DF91CF910C9498022F9227
:1005B0003F924F925F926F927F928F929F92AF92F3
:1005C000BF92CF92DF92EF92FF920F931F93CF9340
:1005D000DF9300D000D000D0CDB7DEB74D835E836F
:1005E00009831A832B833C8361157105810591056D
:1005F000E9F480E3FA01808311820F900F900F904D
:100600000F900F900F90DF91CF911F910F91FF905E
:10061000EF90DF90CF90BF90AF909F908F907F90A2
:100620006F905F904F903F902F9008950CF06EC0A8
:1006300029813A814B815C812A3031054105510580
:1006400009F064C00E948908612C712C2301439435
:10065000CD80DE8016017301830102C07401850123
:1006600029813A814B815C810E9472086A30710550
:10067000810591050CF448C0695A470158018FEF74
:10068000881A980AA80AB80AF10161931F01B901F2
:10069000CA0100977040604009F74528462847285E
:1006A00061F0C701D8010296ED81FE81E80DF91DC8
:1006B0002DE22083740185014C01ED81FE81E80D5E
:1006C000F91D1082C701D801A701B801481B590BB9
:1006D0006A0B7B0B481759076A077B070CF08DCF15
:1006E000F60121916F016D817E81680F791FFB01F9
:1006F0003081A60141505109FA013083FB0120836A
:100700000197A109B109E0CF605DB7CF612C712CD1
:1007100023019ECF0F931F93CF93DF93CDB7DEB707
:1007200060970FB6F894DEBF0FBECDBF0AE010E0B1
:1007300020E030E0AE014F5F5F4F0E94D702CE0154
:1007400001960E94980260960FB6F894DEBF0FBE25
:10075000CDBFDF91CF911F910F91089581E00C944F
:100760005B0180919A008F5F80939A00813031F411
:100770000E943E0580E090E00C943205823059F4EE
:100780000E943B0580939B0090939C000E943E0535
:1007900081E090E0F1CF0895CF93DF9300D000D0B7
:1007A000CDB7DEB78091700090917100A09172007A
:1007B000B091730089839A83AB83BC83CE01019689
:1007C0000E94130581EB93E00E942D0541E050E06B
:1007D00065E081E00E9425040F900F900F900F902C
:1007E000DF91CF91089541E065E081E00E946304CC
:1007F0008FE99FE00197F1F700C0000040E065E05D
:1008000081E00C9463040E94F30380919A0082308B
:10081000B1F410929A0060919B0070919C0080E06E
:1008200090E00E94D40828E23EE74CE85CE30E9496
:100830003A090E94A50860939D0070939E008091E4
:100840009D0090919E00019608956830D8F58430FF
:10085000C8F521E030E0F90101C0EE0F6A95EAF732
:100860006E2F8230D1F0833019F1813059F08AB384
:100870004130510519F48E2B8ABB08956095682389
:100880006ABB089587B34130510519F48E2B87BB9D
:1008900008956095682367BB089584B3413051057E
:1008A00019F48E2B84BB08956095682364BB08956A
:1008B00081B34130510519F48E2B81BB08956095A9
:1008C000682361BB08956830B8F58430A8F521E04D
:1008D00030E0F90101C0EE0F6A95EAF76E2F823021
:1008E000C1F0833001F1813051F08BB3413019F404
:1008F0008E2B8BBB0895609568236BBB089588B3DE
:10090000413019F48E2B88BB08956095682368BB2D
:10091000089585B3413019F48E2B85BB08956095F9
:10092000682365BB089582B3413019F48E2B82BBD6
:1009300008956095682362BB08956830B8F48430E8
:10094000A8F4823079F0833079F0813049F089B3AE
:1009500090E002C0959587956A95E2F781700895B9
:1009600086B3F6CF83B3F4CF80B3F2CF80E008959F
:10097000843068F4823041F0833041F0813011F0EE
:100980006ABB089567BB089564BB089561BB089571
:10099000843068F4823041F0833041F0813011F0CE
:1009A0006BBB089568BB089565BB089562BB08954D
:1009B000843070F4823041F0833041F0813011F0A6
:1009C00089B3089586B3089583B3089580B30895D5
:1009D00080E008951F920F920FB60F9211242F936B
:1009E0003F934F935F936F937F938F939F93AF93B7
:1009F000BF93EF93FF93E0919F00F091A000309799
:100A000009F00995FF91EF91BF91AF919F918F915F
:100A10007F916F915F914F913F912F910F900FBEFA
:100A20000F901F901895FC018E988CE08FBD2EB50D
:100A3000287F9081922B9EBD9EB582818295880FE2
:100A4000880F807C9F7B892B8EBD1DBC1CBC17BC76
:100A500016BC89B7806289BF089580939F009093E8
:100A6000A00008959EB59F7B8295880F880F807C9B
:100A7000892B8EBD089586B597B508951DBC1CBC05
:100A800008951FBC1EBC1DBC1CBC17BC16BC89B77E
:100A90008F7D89BF089512BE2FEF829FC001112460
:100AA00064E670E00E943C086CBFA59AA69A8AE6AC
:100AB00083BF089541E050E064E081E00E94250496
:100AC00041E050E065E081E00E94250440E050E014
:100AD00066E081E00E94250441E050E067E081E0AB
:100AE0000E94250480E58DB97098089540E050E09B
:100AF00064E081E00E94250440E050E065E081E090
:100B00000E94250441E050E066E081E00E94250457
:100B100040E050E067E081E00E94250480E48DB968
:100B2000709808958FB9779BFECF8FB10895CF93BA
:100B3000DF9300D00F92CDB7DEB789839A831B82F3
:100B4000E981FA818B81E80FF11D8081811106C056
:100B50000F900F900F90DF91CF9108950E94920512
:100B60008B818F5F8B83ECCF0F931F93CF93DF939A
:100B700000D00F92CDB7DEB78C018FEF0E949205A7
:100B8000F80180831B82833269F4F8018B81E80FBE
:100B9000F11D10820F900F900F90DF91CF911F9158
:100BA0000F910895FB81FF5FFB838F2F800F912FA3
:100BB000911D89839A838FEF0E949205E981FA81C2
:100BC0008083E1CF1F920F920FB60F9211242F93C3
:100BD0003F934F935F936F937F938F939F93AF93C5
:100BE000BF93EF93FF93E091B100F091B200309783
:100BF00009F00995FF91EF91BF91AF919F918F916E
:100C00007F916F915F914F913F912F910F900FBE08
:100C10000F901F9018951F920F920FB60F921124EC
:100C20002F933F934F935F936F937F938F939F93F4
:100C3000AF93BF93EF93FF930E94E205FF91EF9173
:100C4000BF91AF919F918F917F916F915F914F91E4
:100C50003F912F910F900FBE0F901F9018951F92EC
:100C60000F920FB60F9211242F933F934F935F93E0
:100C70006F937F938F939F93AF93BF93EF93FF9364
:100C8000E091AF00F091B000309709F00995FF9125
:100C9000EF91BF91AF919F918F917F916F915F91F4
:100CA0004F913F912F910F900FBE0F901F9018956D
:100CB0001F920F920FB60F9211242F933F934F93D1
:100CC0005F936F937F938F939F93AF93BF93EF93B4
:100CD000FF930E942F06FF91EF91BF91AF919F91DB
:100CE0008F917F916F915F914F913F912F910F90D5
:100CF0000FBE0F901F9018951F920F920FB60F9274
:100D000011242F933F934F935F936F937F938F9310
:100D10009F93AF93BF93EF93FF93E091AD00F0915A
:100D2000AE00309709F00995FF91EF91BF91AF9117
:100D30009F918F917F916F915F914F913F912F91F3
:100D40000F900FBE0F901F9018951F920F920FB625
:100D50000F9211242F933F934F935F936F937F9341
:100D60008F939F93AF93BF93EF93FF930E947C0663
:100D7000FF91EF91BF91AF919F918F917F916F9173
:100D80005F914F913F912F910F900FBE0F901F9049
:100D90001895FC01808191818130910599F1823013
:100DA000910509F459C0892B09F06AC083B780689E
:100DB00083BF848195810097B9F489B7816089BF29
:100DC00083B78F7B83BF83B7877F83BF83B78F7ED4
:100DD00083BF83B78F7D83BF12BE93B78281877035
:100DE000987F892B83BF08950297B1F789B78260F6
:100DF00089BF83B78F7B83BF83B7886083BF8681BA
:100E00008CBFEACF8FB588608FBD8FB584608FBDF2
:100E100084819581009781F489B7846089BF1EBC65
:100E20008FB58C708FBD1DBC1CBC9EB58281877038
:100E3000987F892B8EBD08950297A9F789B78061A5
:100E400089BF8EB588608EBD8FB58C708FBD868151
:100E500097819BBD8ABDE7CF85B5806885BD8481BC
:100E60009581009771F489B7806889BF85B58778C7
:100E700085BD14BC95B582818770987F892B85BD0F
:100E800008950297B1F789B7806489BF85B58860F6
:100E900085BD868183BDEDCF8130910561F08230C3
:100EA000910599F0892B31F489B78C7F89BF12BEE7
:100EB00013BE1CBE089589B7837E89BF1FBC1EBCAC
:100EC0001DBC1CBC1BBC1ABC089589B78F7389BF9D
:100ED00014BC15BCEECF8130910551F082309105E4
:100EE00061F0892B71F46093B1007093B2000895A2
:100EF0006093AF007093B00008956093AD0070935D
:100F0000AE00089582E080B911B882B984E086BF4E
:100F1000089584EA86BF06B607FEFDCF089584E9EA
:100F200086BF089583B984E886BF06B607FEFDCF65
:100F3000089584EC86BF06B607FEFDCF83B1089501
:100F400084E886BF06B607FEFDCF83B1089581B160
:100F5000887F089522E02BB928E12AB926E820BD30
:100F60009B01AC0183E0220F331F441F551F8A955C
:100F7000D1F760E07AE688E190E00E9450082150C5
:100F8000310930BD29B908955D9BFECF8CB9089514
:100F90005F9BFECF8CB10895CF93DF9300D00F926B
:100FA000CDB7DEB789839A831B82E981FA818B8171
:100FB000E80FF11D8081811106C00F900F900F90F6
:100FC000DF91CF9108950E94C4078B818F5F8B833F
:100FD000ECCF0F931F93CF93DF9300D00F92CDB739
:100FE000DEB78C010E94C807F80180831B82833220
:100FF00069F4F8018B81E80FF11D10820F900F90BA
:101000000F90DF91CF911F910F910895FB81FF5FAA
:10101000FB838F2F800F912F911D89839A830E94CC
:10102000C807E981FA818083E2CF0E94DD0184E76D
:1010300090E00E9498022FEF81EE94E021508040D2
:101040009040E1F700C0000060E081E00E94B5023E
:1010500082E890E00E9498022FEF81EE94E0215008
:1010600080409040E1F700C000000E94AE0380E99C
:1010700090E00E949802FFCF97FB072E16F4009491
:1010800007D077FD09D00E94910807FC05D03EF4F7
:10109000909581959F4F0895709561957F4F089524
:1010A000A1E21A2EAA1BBB1BFD010DC0AA1FBB1F6C
:1010B000EE1FFF1FA217B307E407F50720F0A21BDE
:1010C000B30BE40BF50B661F771F881F991F1A944B
:1010D00069F760957095809590959B01AC01BD0175
:1010E000CF010895052E97FB1EF400940E948908F5
:1010F00057FD07D00E94500807FC03D04EF40C9413
:10110000890850954095309521953F4F4F4F5F4F3F
:10111000089590958095709561957F4F8F4F9F4F63
:101120000895AA1BBB1B51E107C0AA1FBB1FA6172E
:10113000B70710F0A61BB70B881F991F5A95A9F780
:1011400080959095BC01CD0108950E94190988F001
:101150009F5798F0B92F9927B751B0F0E1F0660F7B
:10116000771F881F991F1AF0BA95C9F714C0B130BC
:1011700091F00E943309B1E008950C943309672F70
:10118000782F8827B85F39F0B93FCCF386957795EB
:101190006795B395D9F73EF49095809570956195D4
:1011A0007F4F8F4F9F4F0895E89409C097FB3EF4FF
:1011B00090958095709561957F4F8F4F9F4F9923A4
:1011C000A9F0F92F96E9BB279395F6958795779522
:1011D0006795B795F111F8CFFAF4BB0F11F460FFE2
:1011E0001BC06F5F7F4F8F4F9F4F16C0882311F03A
:1011F00096E911C0772321F09EE8872F762F05C04E
:10120000662371F096E8862F70E060E02AF09A95E8
:10121000660F771F881FDAF7880F9695879597F9DD
:10122000089557FD9058440F551F59F05F3F71F0D6
:101230004795880F97FB991F61F09F3F79F087953D
:101240000895121613061406551FF2CF4695F1DFC6
:1012500008C0161617061806991FF1CF8695710556
:10126000610508940895E894BB2766277727CB018A
:1012700097F908950E944D090C94BE090E94B00987
:1012800038F00E94B70920F0952311F00C94A709BB
:101290000C94AD0911240C9434090E94110970F3C7
:1012A000959FC1F3950F50E0551F629FF001729F0B
:1012B000BB27F00DB11D639FAA27F00DB11DAA1F1A
:1012C000649F6627B00DA11D661F829F2227B00D67
:1012D000A11D621F739FB00DA11D621F839FA00DF2
:1012E000611D221F749F3327A00D611D231F849F42
:1012F000600D211D822F762F6A2F11249F57504099
:101300009AF0F1F088234AF0EE0FFF1FBB1F661F13
:10131000771F881F91505040A9F79E3F510580F0DC
:101320000C94A7090C9434095F3FE4F3983ED4F37E
:10133000869577956795B795F795E7959F5FC1F780
:10134000FE2B880F911D9695879597F9089597F92B
:101350009F6780E870E060E008959FEF80EC08955B
:1013600000240A9416161706180609060895002484
:101370000A9412161306140605060895092E0394FE
:10138000000C11F4882352F0BB0F40F4BF2B11F472
:1013900060FF04C06F5F7F4F8F4F9F4F0895F89499
:0213A000FFCF7D
:1013A200070809250405062A0102032D0D003D2B1D
:1013B2000200010048656C6C6F2C20576F726C64E0
:1013C20021005465737420326E64204C696E65008E
:0A13D200436C656172656421000040
:00000001FF
